:20000000004D00200D39000001CA011001CA011001CA011001CA011001CA011001CA011005
:1C00200001CA011001CA011001CA011001CA011001CA011001CA01103FCA011082
:200100003C000000000000000000000034010000000000000000000001000000000000006D
:1C01200000000000000000000000000001000000000000000800000000000000BA
:20013C00340000000000000000000000680100000000000000000000010000000000000005
:14015C00010000000000000000000000080000000000000086
:2001700030000000000000000000000098010000040000000000000001000000FFFFFFFFA5
:10019000FF00000001000000080000000000000057
:2001A0002C0000000000000000000000C4010000040000000000000001000000FFFFFFFF4D
:0C01C000FFFFFFFF08000000000000002F
:2001CC0034050000E401000099A1011095A70110A5C2011009B2011045B80110A9BC011095
:0801EC0089BC01103000000085
:2001F400280000000000000000000000140200000000000000000000FFFFFFFF00000000B1
:080214000800000000000000DA
:20021C00300500003002000069C201106DC101101FC2011095BA011009BC0110E9BB011003
:04023C002E00000090
:20024000300500005402000075C20110A9B601109DBF011049B60110B9BA011029BC011064
:040260002F0000006B
:200264002400000000000000000000008002000000000000000000000000000008000000CC
:040284000000000076
:20028800240000000000000000000000A40200000000000000000000000000000800000084
:0402A8000000000052
:2002AC00240000000000000000000000C8020000000000000100000000000000080000003B
:0402CC00000000002E
:2002D0000000000020130020040000000000000000000000200000007001000030000000F6
:2002F0001C020000281300200400000000000000000000000C000000300400001800000019
:2003100040020000301300200400000000000000000000002400000048040000180000009C
:20033000000000003813002004000000000000000000000010000000A00100002C00000061
:20035000CC010000401300200400000000000000000000002000000064020000240000009F
:20037000FFFFFFFF481300200400000000000000000000002800000088020000240000001C
:20039000FFFFFFFF50130020040000000000000000000000580000003C0100003400000001
:2003B000FFFFFFFF5813002004000000000000000000000010000000600400001800000016
:2003D000FFFFFFFF601300200400000000000000000000001C000000AC020000240000008C
:2003F000FFFFFFFF6813002004000000000000000000000038000000F401000028000000FD
:20041000FFFFFFFF7013002004000000000000000000000054000000000100003C00000098
:1804300018000000000000000000000040040000080000000000000050
:1804480018000000000000000000000058040000080000000000000020
:18046000180000000000000000000000700400000800000000000000F0
:0804780001000000CC4A000065
:040484000100000073
:0404880000000E0062
:04048C0000000F005D
:040490003200000036
:040494000100000063
:04049800D01200205E
:04049C00000200005A
:0404A0000000000058
:0404A40001CA011078
:0404A8000000000050
:0404AC00000000004C
:0404B0000800000040
:0404B4000000230021
:0404B800F811002017
:0404BC00010000003B
:0404C000E81200201E
:0404C400080000002C
:0404C8000000000030
:0404CC00000000002C
:0404D0000000000028
:0404D4000000000024
:0404D8000000000020
:0404DC00010000001B
:0404E0006012002086
:0404E400060000000E
:0404E800010000000F
:0404EC00601100207B
:0404F0000000000008
:0404F4000000000004
:0404F80000020000FE
:0404FC0000000000FC
:020502002900CE
:020504000100F4
:020506002500CE
:020508002E00C3
:02050A002F00C0
:02050C003000BD
:02050E000100EA
:0105100001E9
:0805140003000000B04A0000E2
:08051C000000000000000000D7
:0405240000000100D2
:0405280000000300CC
:04052C0087C401106F
:04053000380500008A
:040534003805000086
:0405380000000000BF
:04053C00900000002B
:040540009000000027
:0405440000000000B3
:04054800E812002095
:04054C00DB4500008B
:040550002000000087
:040554008C4A0000CD
:04055800F049000066
:04055C000DC30110BA
:0405600093400000C4
:040564008F410000C3
:0405680099C801101D
:04056C009BC8011017
:040570000200000085
:040574008B4A0000AE
:0405780058490000DE
:04057C0070490000C2
:0405800040490000EE
:0205840008006D
:0205860009006A
:02058800010070
:02058A0000006F
:01058C00016D
:040590000000000067
:040594000000000063
:04059800000000005F
:04059C00000000005B
:0405A0001B470000F5
:0405A400BD3B00005B
:0405A80025410000E9
:0405AC00013D00000D
:0405B000353D0000D5
:0405B400893E00007C
:0405B800892D000089
:0405BC00594600009C
:0405C0006D34000096
:0405C400B93E00003C
:0405C80039430000B3
:0405CC000800000023
:0405D0002400000003
:0405D400180000000B
:0405D80028000000F7
:0405DC0020000000FB
:0405E0003C000000DB
:0405E4000C00000007
:0405E80034000000DB
:2005EC002DE9F04F09AFADF13C0D08900A92388809911E46ADF81800101C08BF002000F049
:20060C008481002700F101094FF0FF3A4FF0010BB8466CE1252940F063811078521C0A92A5
:20062C002D2818BFADF8068005D15846551CADF8060010780A9530281CBF4246434605D186
:20064C000A9908785A465B46491C0A912A28CDF80080554616D1306804930A99CDF808A0D2
:20066C00C01C4B1C20F00300001D306050F8044C0A93002C0878009418D5ADF806B0644208
:20068C00009413E044460AE0610001EBC40140180A99A0F1300408780094491C0A91302815
:2006AC0001DB3A28F0DBCDF808A004932E282BD10A9908782A2801F101010A9111D1306851
:2006CC00CDF80880C01C20F00300001D306050F8045C002D48BF454608782B46491C0A91CD
:2006EC0011E0454643460AE0690001EBC50140180A99A0F1300508782B46491C0A913028DA
:20070C0001DB3A28F0DB02930AB1224604926C2804D04C2818BFADF8048005D10A990878A1
:20072C00ADF804B0491C0A910BA9CDF80C800FAB07916428059300F08B80692800F0888055
:20074C00BDF818C0752872D078286ED06F286AD0702850D063283DD073281ED009980A9955
:20076C000128A1F101010A9115D96B490C68B5F1FF3F03D0A84288BF6D1C00D8099D029579
:20078C0008A80AA932466B46A047C7190A99039801F1010974E040462AE030680A99C01CC5
:2007AC0020F00300001D306050F8040CBCF1000F01F10109014608B955A00146079103F08E
:2007CC00E9FE0390B5F1FF3F5BD0A842C4BF281C039056E03068C01C20F00300001D3060D6
:2007EC0010F8040C5D468DF82C000A990395584601F1010945E0082035680490E81C20F01A
:20080C000300001D306050F8041C082210230FA802F060FB401E0790402101700A9907984A
:20082C0001F1010929E0082302E0102300E00A230A99306801F10109C01C20F00300001D17
:20084C00306050F8041CAA42BCBF2A1C049210E00A99306801F10109C01C20F00300001D1E
:20086C00306050F8041CAA42BCBF2A1C04926FF009030FA802F02EFB0790059D281A0390E6
:20088C00009C241ABDF8065000945DB906E008A8202109AA03F092FB009C7F1C641E009466
:2008AC00F5D503980546401E039075B9BDF80600E8B10098401E009019D408A8202109AAF2
:2008CC0003F07CFB00987F1CF4E70798411C0791017809AA08A803F071FB03987F1CE1E7C7
:2008EC0008A809AA03F06AFB7F1C09F101094A460A9812F8011C401C00290A907FF48AAE6F
:20090C00089808B14146017038460FB0BDE8F08F286E756C6C2900C0D84A00002DE9F04FD6
:20092C000128ADF1140D40F0F280DFF81492D9F8DC00012840F0E9800220C9F8DC0003F083
:20094C009BFF0290012002F093FF20B101210646C9F8DC10D5E003F08BFF03906E484FF014
:20096C000008C0F80080012003F09AFC012818BFCDF8008004D1404602F026FE012000901A
:20098C0066486E4CC0F800801934D4F8FF0F112003F076FE00280CBF46460126102003F023
:2009AC006FFE08B146F002060F2003F069FE08B146F004060B2003F063FE30B158480068DD
:2009CC005849006B0246088890470A2003F058FE0028404618BF01204FF0805B0BF5DC75CC
:2009EC0028B128685049006B0246088890474F480127076028688069014646F020008847C4
:200A0C004B48076003F036FE00F001010191400815D2484803F00CFE8246BAF1040FF8D01B
:200A2C00BAF1010F06D1DBF8D801406802464148032190474049086820F0030008604046FE
:200A4C0000F080F82868D4F8FF1F806B8047019801280ED0BAF1010F06D1DBF8D801406870
:200A6C0002463448394690473349086840F0030008602A480760286840690146304688472B
:200A8C000B2003F0FDFD28B128682649C06A0246088890470A2003F0F3FD28B128682249A0
:200AAC00C06A024608889047204807600322C9F8DC201F4BC3F800802868406B0146304603
:200ACC0088470128F8D1042002F0D2FE124807601A48D4F8FF1F01688909FCD300980128CB
:200AEC0002D1384602F070FD03F0BDFD082002F0BFFE06460398C9F8DC7003F0B5FE02F02A
:200B0C0053FC029803F0ACFE02E0042600E00126304605B0BDE8F08F0C40094000022243E5
:200B2C00B8010010224900001E490000282008608001044300400340242208401410094018
:200B4C00501000202DE9F84FDFF8E8B10746ABF13500DFF8D4910068800880F0D68003F039
:200B6C0043FA78490831D1F8008000254FEA28725FEA985102F101020AD2C0F13E0110F1FC
:200B8C000A0F4FEAE101D8BF08218A42B8BF0A1C624BD3F87C11C1F304611629A8BF2039CF
:200BAC001B68C3F30443162BA8BF203B9A465118162905DA11F10A0FB8BF6FF0090100E064
:200BCC001521574B574E01F01F0242F4F8521A80326812F0030F18BF0125D20828BF45F0BF
:200BEC0002050FB145F004054A4692F90730C31A052B04DA9379AB4208BF918865D0DFF8C2
:200C0C002CE10F28A0F10F0C25DB0CEB0013A3F1F00C4FEA2C26072E88BF07263446062C5E
:200C2C0088BF06245EF82470042303EB84037446E358DB1B03F0FF04EF0824BFC3F3072712
:200C4C003C44AF0824BFC3F307473C446F0828BF04EB136401E0002426465EF826E0EF0862
:200C6C000EF0FF0324BFCEF307273B44AF0824BFCEF307473B446F0828BF03EB1E63A4B2CC
:200C8C00ACEB0626BAEB010104FB06F404F1800403EB1423D8BF0121342408F0FF074C43A9
:200CAC007C43B4FBF3F14FF6FF738B4238BF191C802889B2918005DA10F1800FB8BF6FF0ED
:200CCC007F0000E07F20D0719571194800681F2910604FF0000008D340F2FF128A4206D241
:200CEC004908401C8A42FBD301E01F219180124F0F39090940EAC10047EA0001CBF8FB1FBA
:200D0C000026CBF8FF6FBDE8F88F0C490C4F4A4608200F60921D1070BDE8F88F3C11005075
:200D2C006E62084024220840341000209C130050082009403500094000E7A480301009401B
:200D4C00FDFDA400AC3F00502DE9F0411C4615468C4208BF854282BF00230022E5E0002CD7
:200D6C0008BF002D0AD100290EBF00286FF000006FF0000100F0E1F8BDE8F0815FF0000885
:200D8C005FF0000E002C08BF8D429CBF2C1C0025070C47EA01470E0CB44208BFBD429EBFA1
:200DAC005FEA044444EA15445FEA0545070A47EA01670E0AB44208BFBD429EBF5FEA042430
:200DCC0044EA15645FEA0525470847EAC1774E08B44208BFBD4200F29380870847EA817766
:200DEC008E08B44208BFBD427CD8C70847EA4177CE08B44208BFBD4266D8070947EA017700
:200E0C000E09B44208BFBD4250D8470947EAC1674E09B44208BFBD423AD8870947EA816754
:200E2C008E09B44208BFBD4224D8C70947EA4167CE09B44208BFBD420DD8E60146EA556664
:200E4C00EF01B14208BFB84201D3C01BB14158EB08085EEB0E0EA60146EA95664FEA8517E2
:200E6C00B14208BFB84201D3C01BB14158EB08084EEB0E0E660146EAD5666F01B14208BF6D
:200E8C00B84201D3C01BB14158EB08084EEB0E0E260146EA15762F01B14208BFB84201D369
:200EAC00C01BB14158EB08085EEB0E0EE60046EA5576EF00B14208BFB84201D3C01BB1417C
:200ECC0058EB08084EEB0E0EA60046EA9576AF00B14208BFB84201D3C01BB14158EB080826
:200EEC004EEB0E0E660046EAD5766F00B14208BFB84201D3C01BB14158EB08085EEB0E0E34
:200F0C00A14208BFA84201D3401BA14158EB08085EEB0E0EA34208BFAA423EBF2D0A45EA6D
:200F2C000465240A89D3734642461E4617460B46024631463846BDE8F08170472DE9F84304
:200F4C00814603F08AFB002100B901216B4E30680028FCD06C4D01242D1DEF6A346009B136
:200F6C0003F081FBDFF89881C7F3072008F1BC01086003F072FB002100B9214630680028A6
:200F8C00FCD02F68346009B103F06DFBC7F38440C8F8C00003F061FB0146002001B9204665
:200FAC00014630680028FCD0ED69346009B103F05AFBC5F38120C8F8D000B9F5C061C8F8EE
:200FCC00B81000F0968098F8D80068B9C8F8D410D8F8C000C8F8C800D8F8BC70C8F8C47002
:200FEC00D8F8D060C8F8CC60D8F8D410D8F8BC60002954BF02206FF00100454605F1C8034F
:20100C001A6801EB41014018411000EB917002EBA0021A60D5F8C810C5F8C46000291CDDCE
:20102C001E293DDDD5F8CC0030B93429B4BF15391E21C5F8C81025E02A29BABFD5F8C80069
:20104C000B381E20C5F8C800D5F8C4003F28B4BF401C3F20C5F8C4001FE0D5F8CC00032814
:20106C0012D011F10B0FC6BFD5F8C8000B30201CC5F8C800D5F8C4000028CCBF401E00208E
:20108C00C5F8C400032009E011F1150FC6BFD5F8C8001530201CC5F8C8000020C5F8CC00C8
:2010AC00B5F8C400174E30214FF47F4208230090304602F071FB009404214FF40032112308
:2010CC00304602F069FBB5F8C80004214FF4F80212230090304602F05FFBB5F8CC00202120
:2010EC004FF440620A230090304602F055FBBDE8F883002088F8D800BDE8F88300800C4006
:20110C005010002000A00C4000A00C402DE9F04FADF1840D209000F0C7FB02F019FB00245B
:20112C00012804D103F036F9022808BF012459490868C0F38150012805D151F80C1C012046
:20114C00090E884004435448007802F09DFFDFF84C81DFF84CA1C8F8000030B15246FF21FA
:20116C0007467F1E02F8011BFBD120990968002501F0FF02FE2A1BD0DDF880C052462B4625
:20118C00012701F0FF06FF2E0BD0B04203D907FA06F6344201D0022079E001F0FF01354327
:2011AC0053545CF8041F5B1C01F0FF06FE2EEAD1092000F0CDFF3B492098242208230860B7
:2011CC0001A8002103F048FB4FF0010901AA3E488DF81C90494603F03BFBD8F800303BB3B2
:2011EC003A4E00274FF0040BBA4609FA07F0044218D1054204BF07F0FF0141F4C04104D0B2
:20120C0027482099C05D51F82010274800F05CFEF8B24FF0FF3103F06DF8D8F80030C6F81C
:20122C0000A001E0C6F800B07F1C361D9F42DCD30AA800213022082303F006FB1B4D1D4A22
:20124C002878002410210AAB12901948009403F0F7FA16A828220823214603F0EDFA686819
:20126C0016AA16491C9014481D94234603F0E0FA134A52F80D0C494620F4F85040F4005025
:20128C0042F80D0C0F4BC2F8FF1F2046196021B0BDE8F08FB43F00504C10002044100020B6
:2012AC009C0F002048100020007FC767BC4A0000DC0F00201D430000680F002035380000BD
:2012CC000D30094008000940F80F00209C0E00202DE9F0478046D8F80460D8F808700C4659
:2012EC00ADF1380D03F0A0FA3178012903D103F097FA0020ABE04FF0010986F8009003F052
:20130C008FFA207870706078B07060687060A068B060E068F06020693061207D3075607D47
:20132C007075A07DB075A069B061207F3077607F00257077A07F35623563102186F83C10E6
:20134C00B0772C4674627463B462B46386F82C4086F82D4086F83D40786800F0F9FE4046F1
:20136C0000F05EFF404601F0D1FA78B939480068C068014638688847786800F07FFE03F09A
:20138C0053FA347003F04CFAA0465FE001A821463022082303F058FACDF818803A7B099273
:2013AC00A246CDF800A02C4AB96806F1800001AB03F046FA01A828220823294603F03CFA31
:2013CC00396907912549CDF8148006F19C0001AA2B4603F02DFA01A824220823294603F0BB
:2013EC003BFAB5788DF81C903DB906F1D000214601AA03F02DFA1A483061707838B906F1A2
:20140C00EC00214601AA03F023FA1648F06001A821462422082303F0FFF90694ADF8144005
:20142C0006F584701049CDF81C800A2201AB03F0EFF9B969FA6906F1400003F0BFF80B4A89
:20144C0006F16C000421434602F0E2FD40460EB0BDE8F087D0010010ED1A0000113B00000A
:20146C00EF460000E7460000612700000D4600002DE9FC415E4C574D574EDFF860815A4F7C
:20148C0094F8E410481E0B2861D8DFE800F07B2C43062343062343067664042907D001226E
:2014AC000A2945F8212C14BF0220032004E02021012045F8211C024684F8E200002045F888
:2014CC00390C0827C5F8FF7FC5F8F37F45F8392CBDE8FC81052914BF09200620002584F86D
:2014EC00E400356070E094F8E1700120383D002FC5F81B0004BF0620002102D00021F1604F
:20150C00032084F8E400032045F8010C31603068800859D294F8E400012503280DD0002134
:20152C00404660220523009102F036F994F8E400062814BF0A200720D1E702200090002170
:20154C0060220523404602F027F90420C7E703F05BF9BDE8FC812249002622480E60012573
:20156C0005600E2000F08AFD022002F00FFC84F8E45084F8E360BDE8FC81002038600C25BC
:20158C0078601FE01948006800680146202088472C3D41F61D560F2000214FF4C0720723DF
:2015AC0045F8010C4046C5F803600225009502F0F3F8404600214FF4C072072302F006FA5E
:2015CC000120386084F8E45004F1780003F018F9BDE8FC8139400C4038600C4000A00C406E
:2015EC002C500C4004800C4034600C40A00100105010002000B5ADF1440D00F055F95848B4
:20160C00FFF784FD10B118A003F0F6F802F098FA684602F096FF4FF4407008905148079079
:20162C00524951486A46002303F0E2F85048514901F046F80F900F9810B911A003F0DCF8E2
:20164C000F980A21012202F03FFA16A002F089FE02F078F924A002F084FE02F073F903F043
:20166C00C3F8002011B000BD4572726F7220776974682050494E5F696E69740A00C046C035
:20168C004572726F7220696E697469616C697A696E6720626F617264204C45442070696E85
:2016AC00730A00C054686973206578616D706C6520646F6573206E6F7420617474656D7056
:2016CC007420746F206D696E696D697A6520636F6465206F72206461746120666F6F747047
:2016EC0072696E740A00C0465374617274696E67207468652055415254204563686F2065E4
:20170C0078616D706C650A53797374656D2070726F76696465722069732073657420746FB1
:20172C00205379734D696E2E2048616C74207468652074617267657420746F20766965775D
:20174C0020616E79205379734D696E20636F6E74656E747320696E20524F562E0A00C046B8
:20176C008C48000008060020180F0020312A000028100020001300202DE9F041424C464DC6
:20178C008046C8F38140401E02D0401E2AD025E0284620300168880C20D24FF4804020603E
:2017AC003A48D0F802204B0AC1F3033703F0800322F08F02134347EA0302C0F80220D0F827
:2017CC0001300E1266F30303C0F80130026801F0E70722F0E70247EA020102E04FF000418A
:2017EC00204601602F4E301D0068C0F3C0070FB94020A0624FF40070206402F0F1FE40F0F8
:20180C00300084F8C800C8F3815040B3401E03D0401E1FD002211EE0012002F041FD07468C
:20182C000420394601F022FF042002F039FD8742FAD1361F366826F07F4002F08FFA144868
:20184C000068036807214FF06022300E98474FF4806020600321042001F008FF06E00420B6
:20186C00012101F003FF0B4802F078FA284600680A4947F6180700F03F0084F8CB0F084E30
:20188C000F803068BDE8F08140A00C400A600840B4010010BD3786006C13005070B00C40A7
:2018AC002C200940AC3F00502DE9F041444C94F8E700ADF1280D00286FD1394F387B012566
:2018CC000021242284F8E7507E6884F8E6000823C4F80C6101A802F09FFF002604F10C00E6
:2018EC00069601ABADF814602E490796324602F08FFF2D4904F1300001AB324602F088FF37
:20190C002A4904F1540001AB324602F081FFB868014628468847DFF89C8025487B7B0078F7
:20192C00D8F80410C1F381571BB1032F03D184F8E150032F16D0022F14D0012F26D1032035
:20194C001D4C009031464FF040521C23204601F023FF009531464FF400720923204601F03E
:20196C001BFF13E0022002F029FA032F0CBF4FF47A7142F21071114800685434B1FBF0F161
:20198C00204602F02DFF204602F03AFFD8F80000C00802D2304602F011FA0AB0BDE8F08177
:2019AC00A04A00003326000089280000B92A00004C100020B03F005000A00C40C44A00008F
:2019CC00501000202DE9FC410746BE6833687D68986B20F4FA609863A86B40B13268916B2F
:2019EC004FF0FF3041F4FA619163BDE8FC81AA6329630024EC776C630CE09DF80000296BC3
:201A0C0008702A6B696BA86B521C2A63491C6963401EA863A86BA0B93168886B40F4FA60AB
:201A2C0088636A6B286B69780129A0EB0200286305D1E868296B0346384698476A6B144695
:201A4C0046E005F14000694601F0E0FF0028D4D502F0EAFE204F8046387820B9022002F022
:201A6C00ADF901203870404602F0DAFE1B49086840F4007008603168886B40F4FA608863B6
:201A8C006878D8B9696805F1EC0002F0A5FE90B9AC6302F0C9FE0646387818B1022002F097
:201AAC0075F93C70304602F0BBFE1022696B286BEA77401A2863686BBDE8FC8195F82D0051
:201ACC0030B1686B20B1AC6305F19C0002F080FE2046BDE8FC81C0464D10002030100040D9
:201AEC002DE9F8438146D9F808703868066CD9F804504664AA6CA96B686C16F4F06FA0EBA6
:201B0C0002082BD1F00910D270095FD309B395F83C40641EA14298BF0C1C4846214602F09D
:201B2C002BF8A86B001BA86308E091B1484602F023F8014695F82D00A96318B9A86B00285F
:201B4C0044D101E00020A86305F19C0002F040FE3CE04846414602F0B3F837E0F00A1AD2CB
:201B6C004FF00008444603E0A86B401EA863A96B41B34846012101F0FFFF3868446814F032
:201B8C000F04C0F80480EFD0296B686B491E2963401E686316E0386844680022202904F007
:201BAC000F044260CCBF20270F1C4846394601F0E3FFC7F12007B845C8BFB8464846414611
:201BCC0002F07EF8EC77484601F028FAB0090DD3AF6A5FB14846394602F006F8A862A86AB2
:201BEC00394618B94846091D01F08CFDBDE8F8832DE9F04707467D68D7F8089090460C462D
:201C0C0002F012FEAE6A8246002E64D105F5847002F0F8FA2C620024EC7750466C6202F036
:201C2C00FFFD02F001FE2F4E3378824623B9022002F0C4F801203070504602F0F1FD2A4A64
:201C4C001068414640F480701060384601F0CCFFA862C0B93846414601F054FDA878D0B938
:201C6C00A96805F1D00002F0B7FDE8B9AC621020E8774946284601F0BBF802F0D5FD824670
:201C8C00307840B323E0D9F80010886B40F020008863A87810B12046BDE8F087A96805F121
:201CAC00D00002F099FD10B1686ABDE8F0873846414601F027FD1020AC624946E87728465D
:201CCC0001F096F802F0B0FD8246307818B1022002F05CF83470504602F0A2FD4FF0FF3000
:201CEC00BDE8F0874E100020301000402DE9F04390460A68D8F800501678814600271C462F
:201D0C003846ADF1140D531C242E0B6053D112F8016F5B1C4C2E0B600ED1A268ED1C25F04D
:201D2C0003052D1D55F8040C494601F0C7FB2168E7600127091A2160462E1AD1ED1C25F08D
:201D4C0003052D1D55F8040CED1C029025F003052D1D55F8040C002749460390A268ADF871
:201D6C00047001A800F0C2FB2168E7600127091A2160532E1FD1ED1C25F003052D1D55F8C3
:201D8C00040CE061C8F80050208B0090A168E269D9F800004346FEF723FCD9F80050002791
:201DAC0015B14119C9F80010D8F800502168E760091A01272160662E0AD1238B23B9ED1D67
:201DCC0025F00705083503E0ED1C25F003052D1D1FB9E1690E700127E760C8F8005005B072
:201DEC00BDE8F0837CB50446084601F04DF9344E02461821304602F089F802F06DFA40F248
:201E0C00FF32002380B22C210090304601F0C4FC02F0EEFB1C210246304602F077F802F003
:201E2C004DFA02461421304602F070F802F0E2FA02461021304602F069F8204601F082F821
:201E4C0002460C21304602F061F8204602F0BAFA1C4D400040F020002870204602F0BEFA93
:201E6C0040F010002870204602F08CF902462821304602F04BF8204602F0C8FA400040F0DB
:201E8C006000E870204602F0CDFAC00040F0800005F8080C204602F0D1FA800040F47C404B
:201EAC00A5F89300204602F047F802460821304602F02CF84FF48000A5F2091108607CBD3D
:201ECC0000A00C4049A10C402DE9F8430C460546E6B2200824BF30484440DFF8C0C0B2003E
:201EEC002F485CF8021005F4E02E05EA0407BEF5E02F00EA070084EA010305EA030321EAD3
:201F0C000501C3F3006740EA010001D1410E14D305F4E0210F4310D000F4E027B7F5A027C5
:201F2C0007D0B7F5803704BF20F4003040F4A02003E020F4803040F4C0206146DFF8648043
:201F4C00885008F1D0073868F04010F0010905D1E80D03D34046C4F380518155280E10D355
:201F6C0002F062FC210E03D201210023B14002E00121B1400B463A688A4313433B6002F033
:201F8C004FFCB9F1000F05D0E80D03D34046C4F380518155BDE8F883006000A00010084035
:201FAC00007F077F00200240F8B502F056FB01F09FF802F05FFB044604F00C000C284FD04D
:201FCC00E0081ED201F0E4FF274E376805460120014602F056F931686943884211D2234CE0
:201FEC008220B0FBF7F0291A204602F0F9FB204602F006FC0120FEF791FC204602F002F9C2
:20200C002FE020092CD21A4802F012FB0428FAD01849620906D228B10A460846016821F092
:20202C00010104E00A460846016841F001010160D2F898004FF0805440F00300C2F8980019
:20204C00D4F8B8018069014620208847D4F8B801094C806B2168804701202060206800E092
:20206C0030BF02F000FBF8BDC44A00005C100020004003408C2108402C2009402DE9F843CB
:20208C00044602F0D1FB81462D48021992F8ED10491ECFB2002F82F8ED704BD12B4D05EBDC
:2020AC0084052E78698836F07F0788461AD1F10911D24FF08054D4F8B80180690146404664
:2020CC00884704F5DC742068406B0146404688470228F8D121E000EB8800D0F800110020AD
:2020EC0088471AE04FF08054D4F8B801006A014640468847D4F8B801806A01464046884762
:20210C00D4F8B801006B01464046884701210D4A0D48116001688908FCD306F03F003F2883
:20212C0001D0FFF7ABFF687800F03F003F2801D0FFF7A4FF484602F073FBBDE8F883C0462E
:20214C00501000202820086028200840F44800002DE9F041064602F067FB2D4D8046A9198E
:20216C0091F8ED00421C002881F8ED204AD1294C04EB8604277807F03F003F2801D0FFF7C5
:20218C00E7FF607800F03F003F2801D0FFF7E0FF668837F07F001AD1F80911D24FF08054C3
:2021AC00D4F8B801406901463046884704F5DC742068406B0146304688470128F8D121E05E
:2021CC0005EB8605D5F80011012088471AE04FF08054D4F8B801C069014630468847D4F897
:2021EC00B801406A014630468847D4F8B801C06A0146304688470121074A0848116001680C
:20220C008908FCD3404602F00BFBBDE8F081C04650100020F44800002820086028200840BC
:20222C002B4AF0B538CAADF11C0D02A938C10CCA4FF0805681E80C0084684568D6F8D01163
:20224C002068C9688847216822488A6B10408863206840F2F271416495F83C0095F83D2052
:20226C002168C0100DEB8000806810434863684602F0AAFA1A4FDFF864E0D6F8D0112B7F7A
:20228C00DFF854C06A7FA87F496857F823705EF82260AA695CF820300D46206801993E431F
:2022AC003343A8470F490A1F106840F010001060086840F001000860A07DFF2806D0E07D84
:2022CC00FF2803D0086840F44040086007B0F0BDB44900000DF8FFFFA0490000984900003E
:2022EC008849000030100040264A2DE9F04180460126254816600768002FFCD0234DC02040
:20230C0028602448011D0968890804D20168090C41F0F00100E072211D4C84F85412002148
:20232C0011638768384600F03DFC40463946FFF759FD1948816D40F20F226FF31F418A42F6
:20234C0012D901680068C1F30363C0F3034003B15B1E072805D006280EBF0720801C00F0C6
:20236C000F0043EA001020703846FFF705FA0B480068C1680220884740202860084F3E6050
:20238C00BDE8F081101009409402224300600C4002600840AC3F0050BC120050A001001057
:2023AC0094046042264838B560300468B4F1FF3F08BF002402F0DAF82248234B00250121CF
:2023CC001038056003F15C0001601448016001F025F91348006820B1124800682046FFF715
:2023EC0083FF114811490560114C0A686FF35B4244EA020008600F490868C0F301300128FC
:20240C0006D10A680C48104040F400320A6008600A4908680028FCD138BDC0460822044367
:20242C0080012843000120438C210840482003400000390104000940FFFFFCFC0C0068426D
:20244C00BC1200509404604200600C40F0B520480127F84201D001F02FF9204D204F214EC8
:20246C00BD4206D203CD0478A4003459401CA047F6E71D48002800D08047164D164FBD42F1
:20248C0002D210CDA047FAE7F0BD03251BE0416808300A1C2A400BD11A1C2A40AB4305D037
:2024AC00046804300C600431043BF9D1131C05D0047801300C700131013BF9D1021C2A40D9
:2024CC0001D0A84304300368002BE0D17047C046FFFFFFFF0000000000000000D84C0000DC
:2024EC00384D0000904C000059C501102DE9F843002A894607464CBF47F6FF75151C002F8D
:20250C0008BF002033D03888002808BF002403D02A4600F069F90446281B002826DD3888E5
:20252C0028B1291B484613A201F02EFA0419B868E0B1D7F804802E1BB8F1000F0DD0404691
:20254C0002F028F8401DB04207DC291B48460AA2434601F019FA04192E1B122E06DBBB6876
:20256C00291B484606A201F00FFA04192046BDE8F883C0463A2000C0222573222C2000C030
:20258C006C696E652025643A2000002A4AD05FEA000C8B071CD1830722D1102A08D370B4B6
:2025AC00103A78C978C0103AFBD270BC103238D0042A2CD3082A05D30C2A24BF08C908C0D6
:2025CC0008C908C008C908C092072AD0920F22E00B780370491C401C521E22D08B07F7D114
:2025EC00C30714D18307D8D0121F12D308C903801B0C4380001D121FF8D20AE008C9037054
:20260C001B0A43701B0A83701B0AC370001D121FF4D2121D05D00B780370491C401C521E27
:20262C00F9D16046704770472DE9F8432020EFF3118780F31188214CA068012102F0C0F858
:20264C004FF001094FF0000865692168A4F81C906A1A2168A4F81E80461B401A904227D371
:20266C0087F3118840464519361A4846294602F0A3F8B042F7D92021EFF3118781F31188F3
:20268C00E18B012903D14046294602F095F8B0F1FF3F06D0A169801B814238BF081C4119BE
:2026AC0001E0A069291802F083F8A4F820902560A4F81C8087F31188BDE8F88378010020A1
:2026CC002DE9F843DFF87C900F4604464FF0FF31484602F081F8DFF870801D4800210AE07C
:2026EC00FF2A07D00368934202D958F822600EB1002421E0491C1FB117F82120FE2AEFD190
:20270C0000202060012660600546A0600EE0FF290BD0636806FA01F048F8214018430B49DE
:20272C0060601268204601F0B1FA6D1C27B107EB85021178FE29EAD1484602F035F82046F9
:20274C00BDE8F883F80F00209C0E0020007FC767441000202DE9F04107467C68BE6804F5A4
:20276C00847001F04FFD1D49306809688069000923D202F059F81A4D8046287820B10220C3
:20278C0001F004FB00202870404602F049F832681449906B20F020009063086820F4807043
:2027AC000860206A616A2569626A401A2062216A2B4638469847BDE8F0814FF4FA70B0FB53
:2027CC00F1F1012998BF012104F58474204602F007F8204602F014F8BDE8F081C44A000098
:2027EC004E100020301000409EB513460C461F4A1D4912880988824206DB13A219460346D5
:20280C00204601F0C1F89EBD194A1788814207DB01F008FD42681946204601F0B5F89EBD3C
:20282C00002F08BF0BA2E9D00094002B48BF47F6FF73104F002101933C6802910E496A4669
:20284C00A04702989EBDC0467B6D6F64756C652325647D007B6D6F64756C652D726F70657C
:20286C003A25787D00C046C0E24A0000E44A00008A050000DC4A0000E93E00002DE998430B
:20288C0001F0D2FF1F4CDFF87880814604F1E000007850B94446A0680146022088470746FC
:2028AC00102000F0E5FF2FB320E000F04FFD002820460FD1144909683222B2FBF1F101B911
:2028CC00012100F13004204601F08AFF204601F097FF0FE044460022A16880F8E02002209A
:2028EC0088470746102000F0C3FF1FB1A068014603208847484601F093FFBDE89883C046E6
:20290C00A04A000050100020C44A0000F0B58468204A637DA17D257DADF1140D022643F07E
:20292C000043FF2942EA050700934568019708D0E07DFF2805D041F000410243029104266B
:20294C000392FE2105F158004DF826106946FFF7B7FE6866686E002808BF002018D0617D1B
:20296C000F2201F0FFFA686E217D102201F0FAFAA17DFF290BD0E07DFF2808D0686E11221F
:20298C0001F0F0FA686EE17D122201F0EBFA012005B0F0BD0000C0A02DE9F04107467E68B5
:2029AC00BD6801F041FFB16A39B929688969090903D201F035FFBDE8F0810024B46201F0D8
:2029CC002FFFA87DFF2806D0E87DFF2803D03046294600F00DFA2A681049906B20F020004A
:2029EC009063086820F48070086001F01DFF0C4D8046287818B1022001F0C8F92C70404671
:202A0C0001F00EFF716A306A3569726A401A3062316A2B4638469847BDE8F08130100040D2
:202A2C004E10002000B5ADF14C0D0A9109901E4917220CA8FFF7A9FD684601F023FD00205D
:202A4C008DF8160000208DF8150000208DF8140000208DF817004FF4165006900020694692
:202A6C0001F0C4F90B900B9810B909A001F0C4FE0B980CA9172201F02BFE0B9812A901220D
:202A8C0001F021FE0B9812A9012201F021FEF4E74572726F72206F70656E696E6720746898
:202AAC0065205541525400C0744A00001CB5042001F0F6FB022818D0032816D0164800680B
:202ACC00C0F38150032814BF41F288324FF47A721248144C016854342046B2FBF1F101F0BB
:202AEC007FFE204601F08CFE1CBD03200C4C009000214FF040521C23204600F04DFE012095
:202B0C0000214FF4007209230090204600F044FE022001F03BF91CBDB43F0050C44A00000E
:202B2C0000A00C4050100020002213460A46194671B510F0030F0BD0002A82BF00F8011B61
:202B4C00B2F1010210F0030FF6D1002A08BF71BD11F0FF0141EA0121042A18D341EA0141F7
:202B6C00082A0FD30E46102A08D30C460D46B2F10F0312F00F0272C0103BFCD812F0080FF5
:202B8C0018BF42C012F0040F18BF40F8041B12F0020F18BF20F8021B12F0010F18BF017094
:202BAC0071BD704718490968C1F304611629A8BF203901EB2071491C162905DA11F10A0F1F
:202BCC00B8BF6FF0090100E01521104A104B01F01F0141F4F85111801968890803D20D4AE0
:202BEC000021116001E040F040600B4AC10E800E81F0010180F0010001F00101116000F09C
:202C0C00010090607047C046B81200506E6208400000094094042A430000204338B544687E
:202C2C008568606E01F01EFB18482968184A8B6B184088631068C068014628688847686821
:202C4C00FFF71CFA04F1800001F0AAFD04F19C0001F0A2FDA07818B904F1D00001F098FDFA
:202C6C00607818B904F1EC0001F092FD04F5847001F08AFD01F0D8FD0021217001F0D0FDA3
:202C8C0004F16C0001F08EFA38BDC0460DF8FFFFD001001038B519491A4C00204822C1F877
:202CAC00F30F94F8E200C1F8FF2F20B3012817D0022807D003281ED151F8310C00F024F821
:202CCC000B2016E051F8315C2846FEF737F940F2FF50A84202D8801CA842F1D2082008E0C0
:202CEC0051F8310C00F002FB054800780028E7D0052084F8E400FEF7BBFB38BD39400C40C7
:202D0C00AE4A00005010002038B51A4CA0F5C060D4F8B810C4F8D4000029B8BF49420028B0
:202D2C00B8BF4042814220DAB4F8BC00124D30214FF47F4208230090284600F02DFDB4F8C6
:202D4C00C00004214FF4F80212230090284600F023FDB4F8D00020214FF440620A230090A3
:202D6C00284600F019FD012000E0002084F8D80038BDC0465010002000A00C402DE9F843A6
:202D8C008146EFF31188202080F31188174D154C134F012605F11C000660A4F114000660C4
:202DAC00F86A016A14208847D9F81000810C14BF000C042020603868026823210020904701
:202DCC000948066054F8180C20F4C02040F4803044F8180C2E6088F31188BDE8F883C046C0
:202DEC008401001018200940800224430000244338B50C462268916B054621F0200191632B
:202E0C00686E217D012200F0EBFC686E217D012200F05AFE686E217D002201F0A3F8686E61
:202E2C00A17D002201F09EF8A878012806D005F1D0004FF0FF3101F0CFFC03E02168886952
:202E4C000009FCD2686E217D102201F08BF8A17DFF2906D0E07DFF2803D0686E112201F008
:202E6C0081F838BD1A4898B5D0F8781203680F0F03F0FF03802B28BF002300F069FC4FF010
:202E8C00FF3478B1401E07D0401E012802D9801E19D01AE0BFB118E0381C12D0801E14D191
:202EAC00143311E03846401E0BD0801E07D0001F03D0401E09D1163306E0152405E01424F3
:202ECC0003E00A2401E00A335CB2204698BDC046A01000502DE9F8430024002B16460F4697
:202EEC008046254606D5002FC3F1000302D57F42761E2D2599463846494600F0A7FD0CA02A
:202F0C00405CB7FBF9F7002F04F1010408F8010DF1D1A64205DD3021301B401E08F8011D8C
:202F2C00FBD10DB108F8015D4046BDE8F883C046303132333435363738396162636465668F
:202F4C000000FEE738B504461848174D143802686B68C2F30351C2F303405B0813D22B6820
:202F6C001D0511EB257103D41029A8BF0F2100E000211B0410EB237303D4102BA8BF0F238E
:202F8C0000E00023184640EA011002F47F4102F0FF03222C41EA004143EA010024BF02F022
:202FAC008042104338BDC046AC3F00508C13005030B5401E4FF00004ADF12C0D0AD0401E36
:202FCC0004D0401E20D1FEF753FA1DE000F0A4FA044619E001A821462422082301F01CFC28
:202FEC0006940D4DADF8144009490794012201AB05F1780001F00CFC064A23462C2105F1B9
:20300C009C00009301F01CFC20460BB030BDC04699320000A12C000050100020F8B5064647
:20302C00B068174902687568906B20F4FA609063086820F40070086001F0F6FB114C074681
:20304C00207820B1022000F0A1FE00202070384601F0E6FB01F0E8FBA96B11B901F0E0FBCC
:20306C00F8BD0021A96301F0DBFB696B286BEF686A6B401A2863296B3B4630469847F8BD04
:20308C00301000404D1000200146184880B53C3800688A0CC0F38367C0F38F2022D241F3B2
:2030AC00072100290BD54A420021400805D17F0806BF0127381C4FF6FF70521EF5D100292D
:2030CC0010DD4FF6FF72400040F00100824207D2780040F001070F2F92BF01200F27101C71
:2030EC00491EF0D140EA074080BDC0468C130050164880B507683FB315498B6803EA530074
:20310C00C00E21D2134A106880081DD2486880081AD21068096810F0050F4FEA114101F0F9
:20312C00F00101F5E0710AD1B9420DD2190F38BF40F00100D90E38BF40F0040003E0B94256
:20314C0002D920F00500106080BDC04628500940AC3F005000000940F8B5844640F6FF745B
:20316C001CF8013B002210E0481B401E10F8015B7F1E01F8015BF9D103E01CF8010B01F804
:20318C00010B521C5B08082AEADA5808F5D21CF8010B1CF8015B05F00F07FF1CC5F30315A3
:2031AC00122F45EA001508D11CF8016B300A24BF1CF8010B60F3DF16F719AC42D4D1F8BD48
:2031CC00D0B51E4603461748082706600446037111F8013B7F1E637104F10104F8D136B19F
:2031EC0012F8011B761E417300F10100F8D100BFD0BD84460B48E0B50D4608270146066865
:20320C000A797F1E01F101010CF8012BF8D13DB136B1017B761E00F1010005F8011BF8D1DC
:20322C00E0BDC046340C00200246F8B5084611464C68203822D0401E1DD0401E18BF6FF008
:20324C0001001FD18D6801F0EFFA0F4E074630680069014628688847B0F1FF3FF7D1002585
:20326C00A5642565606CA563401EE064384601F0D7FA2846F8BD0021084601E00121002044
:20328C0084F82D10F8BDC046D00100101648144A144908B5E4300078801E0A2807D8DFE8F5
:2032AC0000F01814100614100614100609C001F0ABFA11E010688008FCD250688008FCD250
:2032CC000AE008688008FCD306E008688008FCD202E010688008FCD3FEF7CAF808BDC04652
:2032EC0034600C4038600C4050100020134910B50A684BF2F5214843040AC2F38140012860
:20330C0006D100F071FE00F0C1FB604304EB90540C4901F1E500007830B90948006820F0F3
:20332C007F402418640802E0002081F8E50006480460210C41600123836010BDB43F005023
:20334C0010200940501000203C600C4008B5012000F0A6FF01281DD00F4834210122002305
:20336C0000F034FB002808BF002014D00B48006800F062FE01F002F80A4A93681168D06041
:20338C00C01A074BA1EB91014343180C884228BF011C1160012008BD00A00C40800000108C
:2033AC0040420F0014100020B0B5144D28680004070C21D000F018FE114991F907208242F9
:2033CC0005DD10F1800FB8BF6FF07F00C8718C88BC4210D80A68D5F8D40F801A801C1F2848
:2033EC0088BF1F203F1B4008C7404FF6FF70E719B84238BF071C8F80B0BDC04634100940BB
:20340C003410002070B50C4620B141680122A240114201D1022070BD0D4E104B9143002523
:20342C004160305D43F82450FF2804D00949096851F8201001E044F020410748FEF744FD71
:20344C0020464FF0FF3100F055FF284670BDC0469C0F002048100020007FC7679C0E0020EC
:20346C00154909681F280ADC1F2819D00C380FD00B380FD0001F0FD0C01E0FD01AE02538BD
:20348C0010D0001F10D0401E10D0401E10D011E00868704788687047C868704708697047F7
:2034AC004869704788697047C8697047086A7047486A704700207047F0010020F8B5064695
:2034CC00B08815460F46FFF78FF90446002D02D4281B0A2806DB3368291B38460BA200F0DD
:2034EC0053FA0419B08978B1002D06D4B06801F051F8291B401D884206DCB368291B384671
:20350C0003A200F041FA04192046F8BD257000C0282725732729000038B5134D95F8E10050
:20352C00002410B91148007860B101F07DF995F8E310002906BF012185F8E310012401F033
:20354C006FF90CB1002038BD022000F037FC0E20FEF7FEFD00F0AAFD01280EBF01200020F4
:20356C0085F8E20038BDC04650100020AE4A000070B504461148006815460E4680472B4656
:20358C003246B3F5807F88BF4FF480730C4D201268702C701E0AAB702946EE70F320FFF76B
:2035AC000FFE00212846FFF724FE06486E782C780068804704EB062420B270BD18130020E1
:2035CC003C1000201C130020012838B51ED1012000F066FE01281BD000F0E8FE0D4D0E4810
:2035EC000122322305F1E00100680A70B3FBF0F404B914463035284600F004FE284621464B
:20360C0001F0EEF8284601F0FBF801E000F024FB002038BD50100020C44A00000F4908681A
:20362C000028FCD1104A131D0D49186820F0030001430C480068C0080CD2106810F0030FE6
:20364C000AD041F003001860106800F003000328FAD101E041F00101196070470C0068427D
:20366C0004000020B03F0050004003407CB5114D04460E46600807D3B0B2002100900122B3
:20368C000B46284600F088F8A00807D3B0B20090002102220123284600F07EF8E00807D37C
:2036AC00B0B2009000210C220223284600F074F87CBDC04600A00C40F8B506460F4D104FEF
:2036CC007388002417E0A00000EBC400321851689068D26852B9AF420BD00A7855F822205C
:2036EC000346491C08461946904701E0FEF74DFF7388641CA4B2A342E5DCF8BD904C000062
:20370C009C4C000070B544680D4604F5847000F079FD0D4A267F607F0C49A36912688019EF
:20372C00C01D80B204F5847445436943B1FBF3F010186330B0FBF2F1491C204601F050F86D
:20374C00204601F05DF870BDC44A000040420F00104A1068C0F30F314BF69A10884207D193
:20376C0011680B20B0EB117F14BF0020042070472430884208BF01200BD04BF64130884243
:20378C0008BF032005D0213888420CBF02204FF0FF30704718130050B0B500EB4100102BE2
:2037AC0004AF00F5007403D3103B00F50174120C3D889D4045EA024500F04FFF002700B902
:2037CC000127064A394610680028FCD025600120106009B100F047FFB0BDC04600800C4035
:2037EC0038B50E4B1B680D461446AB4204D90C4951F82510884201D0022038BD01F014F8FB
:20380C00084910390B68AC400122AA4093431C430C6001F005F8002038BDC0464410002078
:20382C009C0E0020E02002402DE9F84300F034FF0D4D2F688046A7B1DFF83090002401260B
:20384C0006FA04F018EA000F07D059F8240020B1036813B1214698472F68641CE4B2BC421A
:20386C00EED3BDE8F883C046441000209C0E002070B5104C0646204600F020FF0025B0B947
:20388C00204600F03EFF0446A06806420AD0E068226900210346304698470546012D08BF43
:2038AC00012005D0204600F02EFF041CECD1284670BDC0465010002070B50D46044600F0D3
:2038CC00B3FF6668A1682B468E4204D100F0A8FF4FF0FF3070BDE1682568491CB1FBF6F23C
:2038EC007243891A4B55A2686369E160521CA260934238BF626100F093FFA06870BD704740
:20390C000C4885460C4885446F4607208743BD460A486F4607600A48002803D07946491DD6
:20392C008E460047FEF792FD00F0C4FD00F028FFFEE7C046004D00200003000088130020FE
:20394C00B146000070B500F017FF06460B480C4C05682089012806D10A4962682068096816
:20396C001018891AA84720686168A847002060602081304600F0FCFE70BDC046D44A00000F
:20398C000C130020D04A00000CB4F0B505AF061C0C4627F00303ADF1040D03F1040304D09A
:2039AC003068002818BF051C00D100253A68284600F036FE844238BF601E15B13168411826
:2039CC00316001B0BDE8F04002B07047F8B51E4614460D18102E02D3103EAD1C240C00F081
:2039EC003CFE002700B9012707483B460768002FFCD02D88012101600BB100F034FE2C40BD
:203A0C003441A0B2F8BDC04600800C40B0B50D46044600F009FFA768294697B12269236876
:203A2C009A5C0A7021696568A268491C521EB1FBF5F3A2606B43C91A216100F0F1FEA06844
:203A4C00B0BD00F0EDFE4FF0FF30B0BD1CB50A1C17D000230124E407A04238BF041C944257
:203A6C0001D95200FBE790425B41904228BF801A914201D25208F6E7191C021C081C111CEA
:203A8C001CBD00B1C843FFF78CF81CBD0D4938B5D1F8EC3209681B3800FB00F409060A1626
:203AAC0043F3072100FB01F519066043091661434243891201EBE50101EBA24000EB234018
:203ACC0038BDC046A410005084460B4880B5174602688A42604604D9084A52F821209042C4
:203AEC0001D0022080BD002307B10123044A0020E03A535480BDC046441000209C0E0020DB
:203B0C00E0200240F8B50646756800F08DFE0B4C0746207820B1022000F038F90020207006
:203B2C00384600F07DFE696B286BEB686A6B401A2863296B30469847F8BDC0464D100020FB
:203B4C0038B50B4C2068B0F1FF3F10D10021094D216004E0896888472168491C21608A0038
:203B6C00284602EBC102801801680029F2D138BDAC1100205C4A0000F8B50C4E4468856816
:203B8C000F4608E0216B0870606B216B7F1E401C6063491C21633FB1306800690146286814
:203BAC008847B0F1FF3FEDD13846F8BDD00100102DE9B0430F46044600F0A9FD04F128021C
:203BCC0092E800034B464246FDF7BEF805460B462A464046494600F079FC17B1303484E87B
:203BEC0003002846BDE8B083F8B5446885680F1C11D00A4E3068216A8269097828689047D0
:203C0C0048B1216A606A7F1E01F10101216200F101006062EED13846F8BDC046D0010010A9
:203C2C0098B504460B48076887B100F0A5FD08494A68531C4B600B68D4544A68974203D13E
:203C4C0000224A6001270F8100F092FD98BDC0460C130020D04A000010B503200021FFF7A2
:203C6C0005FD012000F01CFB18B10648006800F0E3F900F083FB044C083C606000F0B4F964
:203C8C00206110BD800000101C1000200A4B10B51B6802F0FF04A34206D9084C02F0FF0350
:203CAC0054F82330984201D0022010BD08461146FEF70AF9002010BD441000209C0E0020F7
:203CCC00F8B50B4E446885680F4606E004F14002C1B21046FFF7F0FD7F1E3FB1306800698D
:203CEC00014628688847B0F1FF3FEFD1F8BDC046D0010010094910B500200A4C08600120C1
:203D0C00C86114342060216844F8280C04480068016A14208847206810BDC04600002443C9
:203D2C00B00100101820094070B5044604F128020CCA0846002100F0C9FB04F1300292E80D
:203D4C0060002D1846EB0106290C3004014300F095F8383484E8600070BD704709490204DC
:203D6C0080B5120C41F8082CC0F3074041F8040C0120086004480768002FFCD0002008606D
:203D8C0080BDC04644600C4084088C4310B5044600F04AFD084BE21892F8E810491EC9B292
:203DAC0082F8E81021B99A680121A1408A439A6000F036FD10BDC0465010002038B5044632
:203DCC0000F032FD084A02F108031D680121A14012192943196092F8E810491C82F8E81077
:203DEC0000F01EFD38BDC04650100020084A08B51268824298BF002009D901B90549064B32
:203E0C00820002EBC00298180268D268904708BDAC110020184A00005C4A000010B500F0DB
:203E2C0027FD00F029FD032000F09EFC06481030006830B1034C204600F0A5FB204600F01D
:203E4C009FFB10BD9B450000A401002008B500F02FFC012801D0FFF774F8074800F080FC5B
:203E6C0000F036F900F078FC00F072FC00F06CFC00F066FC08BDC046293E000010B50C4662
:203E8C0000F07CFA211AB1F1004F08D8011B091DC90F05D1001DA04288BF041C00E0041D4D
:203EAC000148046010BDC0461820094010B504460848006860B134B101E0FFF7B1FE14F8A6
:203ECC00010B0028F9D10448008808B1FFF73AFD10BDC046D04A0000E04A000010B50B46F1
:203EEC0004466168002908BF01200CD0206806A2FFF74AFDA1684118A16061680029C4BF71
:203F0C00091A6160002010BD25730000B0B515460C1800F0A2FB002700B90127054A3946E5
:203F2C0010680028FCD025600120106009B100F09AFBB0BD00800C40202838BF07480CD30E
:203F4C0007480C30016808038215920500F47C1001F00F01104340EA0130704700803F4043
:203F6C008C13005008B5084B1B688B4204D9074B53F82130984201D0022008BD08461146E4
:203F8C0000F0B8F9002008BD441000209C0E002038B52020EFF3118580F31188064CA06846
:203FAC00002100F00DFC6169081AA169814238BF002085F3118838BD7801002010B50C4655
:203FCC00116801290ED9491E1160016831B900F01FFB38B12046FFF723FE10BD0268521C0B
:203FEC0002600C7010BDFEE70748816841F31002064991F900100068A0F540704143081174
:20400C00121A803210127047285009400C13005010B5044610460A46211C14BF002802209E
:20402C0006D0C8608A6003480B6100F019F8002010BDC0465010002070B5054600F00DFBF9
:20404C00002400B90124054E30680028FCD0A847012030600CB100F006FB70BD00800C402C
:20406C0038B50D46044600F04AFB00212A462346116059685160596801B921460A605A6092
:20408C0000F0CEFB38BDFEE7074810B50468FFF75FFB04F07F04012804D100F07BF90228AE
:2040AC0008BF641C204610BD4413005006490868002818BF012005D1044B402001221860D4
:2040CC000020CA617047C04604800C402C500C40074808B51030006828B1034800F053FA1F
:2040EC00024800F04DFA08BDD1410000F1440000A4010020074810B51030006830B1044C75
:20410C00204600F040FA204600F03AFA10BDC0460B390000A4010020074908B5283090E8C0
:20412C000C000020FCF710FE002908BFB0F1FF3F88BF4FF0FF3008BD907E00001CB50446D4
:20414C00019100F065FA40B100204FF0FF31224601AB0090FCF744FA1CBD4FF0FF301CBDFD
:20416C0038B50C46054601E0241A451944B1012029462246FFF7FCF9002801DD8442F3D2C3
:20418C0038BD7047202838BF002008D304480C300068C10C01F44071C0F384500843704741
:2041AC008C13005038B5054600F03EFB04460448294600F0C9F8204600F032FB38BDC0466F
:2041CC005010002010B5064C206900F0B5FA0146A06800B9E160A068401CA06010BDC04694
:2041EC00A4010020054808B54168054801220838026048698969884708BDC046E4010020E7
:20420C000C200940002181820449C0684969814203D10348006800F0F3BA7047780100209B
:20422C00C84A000001460648006800E00068002808BF002002D002899142F7D17047C04657
:20424C0078130020054808B5026822B1044800680021FEF76DFC4FF0FF3008BDD04A0000E0
:20426C000C13002010B5044607E090FAA0F0B0FA80F0C1B22046FFF7C5F860680028F4D188
:20428C0010BD02294FF0000204D0012808BF4FF47A7203E0012808BF40F2EE2210467047C4
:2042AC00042807BF4FF0C0421D234FF080521C2301483421FFF78ABB00A00C4005481838CD
:2042CC0001680348084001F07C4108437047C046FCFCFC008C13005005493C390868096899
:2042EC00C0F3870001F0030140EA01207047C0468C130050002948BF0021044A02EB800080
:20430C00026861F3050202607047C046001008400349044809680160034800F0EFB8C04603
:20432C00E0200240E0200260680F00200448008820B10448006808B1FFF704BB7047C046B2
:20434C00E04A0000D04A00000A681AB94A6842600A6801E04B685360496801B901460A609F
:20436C0070470FB480B502AF386827F00301091D00F0CFF9BDE8804004B0704704480168B3
:20438C00436802688A42FAD1080440EA1340704708200940044884380068C0F30240042823
:2043AC00C8BF4FF0FF3070471813005008B503200121FFF75BF9FFF7E1FF0149086008BD31
:2043CC001C100020222804D303480068C0F30070704701207047C0468C130050222804D3E9
:2043EC0003480068C0F34070704701207047C0468C13005004481C38006800F47C0100049A
:20440C00000C08437047C0468C130050202805D303480C300068C0F30150704700207047EC
:20442C008C130050222804D303480068C0F3C060704700207047C0468C130050222804D336
:20444C0003480068C0F34550704700207047C0468C130050044908B591F8E60018B1D1F8C7
:20446C000C0100B1804708BD50100020034A00211170406801700248017070474D1000206F
:20448C004E100020044910B51CC91CC01CC91CC00EC980E80E0010BD184A0000012814BF86
:2044AC00002140F2FF71024A002011607047C046000004600449B1F1FF3F07BF0020011CFF
:2044CC000868091DFDF796B8FFFFFFFF30B502FB01F403FB00444FF00005E2FB0054214607
:2044EC00284630BD04498868401E886003D10869C96800F01DB97047A40100202022EFF3F6
:20450C00118382F31188426A1143416283F3118800F05EB9034804490068814201D0FFF7AA
:20452C0062BD704798CA01107047282010B50446FFF7E0FD032000F017F9204600F020F9B3
:20454C0010BD08B50090009828B1009800213C22082300F0E9F808BD034A116850681368F3
:20456C008B42FAD17047C0460820094008B5FFF7EFF818B9FEF776FC162800DAFEE708BDD5
:20458C000349086070470249091F0860704770471C1300204FF0FF31421E12F8010F491CBE
:2045AC000028FAD10846704708B500F0B9F80248006800F00DF908BD840100200160426084
:2045CC000021816001614161521EC260704700B50A21ADF12C0D684600F09EF80BB000BD1D
:2045EC0002480068C0F3C1407047C0468C130050024810380068C0F30D0070478C1300503D
:20460C00042808B502D11046FDF70AFE002008BD02490968002001B101207047D04A00001B
:20462C000EB501930023009301ABFBF7D9FF0EBD006801092CBF042000F003007047D0F82D
:20464C000320C31D08461946FDF79FBF08B500F05EF8000C0904084308BDEFF3108072B686
:20466C00704700207047EFF3108062B6704700207047000001480830006870475010002068
:20468C000149ED31085C704750100020D0F8032008460021FEF74CBA014880687047C046C8
:2046AC00C801002008B5FDF77DFEFFF733FF08BD0148C0887047C046F00100200168002004
:2046CC0001B90120704708B503681B69984708BD08B50368DB69984708BD4068EC3000F028
:2046EC0063B84068D03000F05FB84FF0FF30906070474FF0FF3070474FF0FF30704700F095
:20470C0093B8006870470068704700207047FFF723BFFFF713BD0000DFF800F00DC30110E7
:20472C00DFF800F067BE0110DFF800F0D9C10110DFF800F04DC20110DFF800F049C2011034
:20474C00DFF800F009C30110DFF800F03DC20110DFF800F08DC20110DFF800F095B7011087
:20476C00DFF800F081C60110DFF800F045C00110DFF800F079C80110DFF800F085C80110F3
:20478C00DFF800F0D1C70110DFF800F0B9C20110DFF800F0E1C20110DFF800F0E9C201104C
:2047AC00DFF800F061C20110DFF800F041AC0110DFF800F0BDBE0110DFF800F00DA801104D
:2047CC00DFF800F095C00110DFF800F0F9BF0110DFF800F021B30110DFF800F0CDA001101F
:2047EC00DFF800F0C1C20110DFF800F055C00110DFF800F025B10110DFF800F049C70110CF
:20480C00DFF800F0E3BF0110DFF800F099C80110DFF800F079B50110DFF800F085C10110B5
:20482C00DFF800F019C20110DFF800F049C10110DFF800F085B00110DFF800F0CDC1011064
:20484C00DFF800F029AF0110DFF800F03DC10110DFF800F009B70110DFF800F0C1C10110D4
:20486C00DFF800F049BA0110DFF800F0E1B50110DFF800F0D5C00110DFF800F0F5C00110E9
:20488C000A0880800F088080002007C0042007C0034007C0074005C0012000C015088080FD
:2048AC000C08C0800D0080800E00C08014008080024000801600C0800B400080174000806F
:2048CC0018400080194000801B4000801C4000801D00C0801E0000801340008012400080C4
:2048EC0011400080FE0000008F3F00008F3F01008F3F02008F3F0300903F00018F3F0101FF
:20490C00903F0002903F00038F3F01048F3F00058F1208048F3F00048F3F0006513F00005F
:20492C007F3F01003F3F04003F3F02003F3F01007F3F02007B756E6B6E6F776E2D696E7369
:20494C0074616E63652D6E616D657D007B656D7074792D696E7374616E63652D6E616D65FB
:20496C007D00C0467B7374617469632D696E7374616E63652D6E616D657D00C00000000018
:20498C0020000000400000006000000000000000080000000000000006000000020000003B
:2049AC0086000000820000000000000008000000100000001800000020000000292C00003E
:2049CC003532000079440000DD120000D1190000FF46000029300000FD1B000005470000CC
:2049EC00A52900007FC8011051420000C9BC011051B2011037C20110BDAD0110C1B1011040
:204A0C0071BA011069BB011021C0011000000000FFFFFFFFFFFFFFFF00000000000000002F
:204A2C000101010100C201000300000000000000001000400600000015000000FF00000036
:204A4C00000000001D1CFFFFBC0F002020000000C8490000080B00203C4A0000000000003E
:204A6C0000000000000000000C4563686F696E6720636861726163746572733A0D0A0000D0
:204A8C00010001000000000000000000000000000100000000000000B51F0000BD2F000047
:204AAC000101010045B5011099A6011019B80110FF000000000000000A00000090120020DF
:1A4ACC0061440000800000006D410000F91C0000F74600000100FF7F0040EC
:204AE80000C500000FC90101007500850ECF01A944FF0000D535000017479E109360110031
:204B080020003103F904BE1245020000080901B30B27C2011006FF061535FF0000017DDBAE
:204B2800C5A71713B5450A57D0122300200175027D02F54007B00D7B4701000C03700031F4
:204B480001BF02280530AA003130003438003440003448AA00345000345800346000343510
:204B680005262197052240110222C802F123B18F9C010020003116B1166967A53D2593B0AB
:204B88000DB00031B80034C0F20034C8003427F5F1410000AD03133100142922CC1BC00801
:204BA800C629C0080207A4184000F10A08D780800F0030FE2B801C0EF209679B14F0003113
:204BC80020130020AA003128003430003438003440AA0034480034500034580034604A001F
:204BE800346800347000341CF27F32DF040022F3FFF0007D000000981300208C00305990A6
:204C0800007000F1004D00700300927F2001010000540D0174000044FFF000F30100000734
:204C280000B9B0120020EC01A8025294130133340100052000313C0034FFF0009D00000185
:204C48006CDC02007200C014EF1200200300C4593E001F0039450000FFF000FD000004B000
:204C6800110020601247002001010000310029900170000031FFF0007B0100000F003012D8
:204C88000020016100FFF000653100004B46000099460000003D000000B0110020FFF00088
:204CA8001F80130020000000FFF000000000000002000000470E0000000F08000000FFF0CE
:204CC8000001000000FFF00001000004FFF00000E84A000050100020FA4B0000440100208C
:204CE800224C000000010020434C0000A4010020624C0000780100207F4C0000C8010020CE
:204D08009C4C0000E4010020A74C0000F8010020B84C000008020020C04C00000002002036
:104D2800C84C0000EC010020CF4C0000F00100202E
:020000040001F9
:20FFA80000008001100082FFFDFF58003AFFBFF3FFFFFFFFFFFFFFFFFFFFFFFFFFFFFFFFF8
:20FFC800FFFFFFFFFFFFFFFFFFFFFFFFFFFFFFFFFFFFFF00FFFFFFFF00FFFFFFC500C5FFAA
:18FFE800000000FF00000000FFFFFFFFFFFFFFFFFFFFFFFFFFFFFFFF12
:00000001FF
